:100000000080001041520000715200007352000045
:100010007552000077520000795200000000000085
:10002000000000000000000000000000C905000002
:100030007D52000000000000330600006906000049
:10004000835200008352000083520000835200005C
:10005000835200008352000083520000835200004C
:10006000835200008352000083520000835200003C
:10007000835200008352000083520000835200002C
:10008000835200008352000083520000835200001C
:10009000835200008352000083520000835200000C
:1000A00083520000835200008352000083520000FC
:1000B00083520000835200008352000083520000EC
:1000C0008352000083520000835200000348044B17
:1000D000834202D0034B03B118477047680D0010EC
:1000E000680D00100000000005480649091A891033
:1000F00001EBD171491002D0034B03B1184770478F
:10010000680D0010680D00100000000010B5064CCE
:10011000237843B9FFF7DAFF044B13B10448AFF378
:1001200000800123237010BD680D00100000000046
:100130007853010008B5044B1BB104490448AFF3E0
:100140000080BDE80840CFE7000000006C0D001003
:1001500078530100A3F5803A704700BF154B002B80
:1001600008BF114B9D46FFF7F5FF00218B460F4658
:100170001148124A121A08F01DF80C4B002B00D03F
:1001800098470B4B002B00D098470020002104001B
:100190000D000B4806F01CFC07F09AFB200029001C
:1001A00004F041FF06F026FC0000080000000000FB
:1001B0001B50000000800010680D0010982B0010EC
:1001C0003D6E00007047704710B50446094B48303B
:1001D00003F1200240F8483C5C3340F8182C40F80A
:1001E000143C00F0E9F804F1300005F091FF2046DE
:1001F00010BD00BF484A0100A0F13000E4E7A0F1C3
:100200003400E1E710B50446FFF7DEFF2046602129
:1002100006F0D2FB204610BDA0F13000F2E7A0F1BD
:100220003400EFE7704710B504460C2106F0C4FB1C
:10023000204610BD38B50368044601330D4604D18D
:1002400024220549054805F093FF636815B1E2686B
:10025000136038BD2269FBE73C4201007B4201008C
:1002600038B504460D461822002107F0A3FF2046AA
:10027000294606F02CF8204638BD0000F8B51C4A87
:100280001C4B04461C4904F0B9FC04F11007A0659E
:100290000021384604F12806FFF7CCFF04F14005A1
:1002A00000213046FFF7C6FF00212846FFF7C2FFB6
:1002B000124806F081F801213846FFF7BBFF012103
:1002C0003046FFF7B7FF01212846FFF7B3FF0B4881
:1002D00006F072F8A06D04F0ADFC094D30B128466F
:1002E00008F026F8A06D04F0A5FCF7E7F8BD00BF04
:1002F00000C0092004C0092019C00920CDCCCC3D84
:100300002442010000B599B0164A174901A805F02A
:1003100005FD164B16490193032305A88DF81030EF
:10032000FFF79EFF13490BA8FFF79AFF124911A888
:10033000FFF796FF002301A81793FFF79FFF0F4DCC
:100340000F4C179B6946586803681B69984728B982
:10035000009A2946204605F0EDFEF2E76FF00042D4
:10036000F7E700BF0BC009200AC0092014420100B2
:1003700040C0092041C0092042C009209342010029
:10038000B40D001010B5074C074A08492046002359
:1003900005F0EEFD2046BDE81040054A054906F08F
:1003A0000DBB00BF840D001003C0092002C009204E
:1003B000C8000010C901000010B50446006800F034
:1003C0004BFB204610BD704708B5024C2368984788
:1003D000FCE700BFCC000010244A836AD2F800C0BA
:1003E0002DE9F0419B08056B08BFCCF38D0305EBAD
:1003F000830254074FF0807448BF043A42E9021464
:100400004FF000081446A2F14007A2F14406A2F101
:100410000C0E46F8048F7645FBD1C6691CF0805F50
:1004200042F8206CC762416318D0112B16D94FF0E7
:10043000CC31103B5B08A2EBC302083CA24211D1B5
:100440006FF0070202FB03731A1D954238BF4FF08D
:10045000CC3203F1080338BF43F8042C044B2B6063
:10046000BDE8F08144E91011E7E700BFF042010068
:10047000A52E5AE2C36A19627047C36AC3E908121B
:100480007047000008B50D4800F0B2FA0C4B186038
:100490000C4800F0ADFA0C4B18600C4800F0A8FABC
:1004A0000B4B18600B4806F093FA07F011FABDE801
:1004B00008400021084604F0B6BD00BFE842010034
:1004C00044240010E4420100EC0D0010E042010061
:1004D000E40D00103D6E0000FFF776BF10B5044636
:1004E00000F0DEF92146BDE810400246014805F063
:1004F00051BE00BFA84201004FF4806030B4084BE9
:100500000849C3F180520B6002F5F842064D074CD2
:10051000074913442B602260086030BC704700BF5D
:10052000982B00105C1F0010F40D0010581E0010D6
:10053000F00D001000F0DCFAFFF7DEFF03480021A9
:1005400000F0F2F900F032F9FEE70000D0000010F0
:10055000024B4FF0FF31186800F066BAEC0D001046
:10056000014B186800F06CBAEC0D001080F309889C
:100570007047EFF309807047684680F309883F4869
:100580000078C00714BF0220032080F3148870474E
:10059000DFF8ECC0EFF305831B0618BF6047EFF3ED
:1005A0001483DB0708BF604700DF7047DFF8D4C063
:1005B000EFF305831B0618BF6047EFF31483DB07D7
:1005C00008BF604700DF7047EFF30980816911F8C9
:1005D000021CF1B990E80F10E047EFF3098C8CE8AA
:1005E0000700294B93E8060091420FD039B12CE95E
:1005F000F00FC1F82CC00CB400F072FF0CBC1A60F4
:10060000D2F82CC0BCE8F00F8CF309886FF0020E12
:10061000704710B51D4A1268914209D81C4C54F815
:10062000214090E80F10A047EFF3098C8CE80F00F1
:1006300010BD00F0E5FE144B93E80600914210D087
:10064000EFF3098C2CE9F00FC1F82CC00CB400F0CA
:1006500047FF0CBC1A60D2F82CC0BCE8F00F8CF33A
:1006600009886FF0020E704700F01CFFFFF7E3BF30
:1006700000F016FF00F016FFFFF7DDBFD2420100C9
:10068000131100002D110000442B00100000000089
:10069000FCFFFFFF00B5DFF80CC000DFDFF808C08B
:1006A00000DFFEE7A1080000B908000030B5002413
:1006B0000A4A136843B90360816013B19D68691ADF
:1006C000996044B1206030BD9D688D42F3D81C46CE
:1006D000491B1B68EEE71060F5E700BF002B001018
:1006E000C0B1431C11D00C4B984211D84FF47A7111
:1006F0000A4B1B685A1E01FB0020B0FBF3F34FF6B8
:10070000FE70834206D898B270474FF6FF7070476C
:100710004FF6FE70704700BF00093D00A442010083
:1007200038B1830704D10378002B18BF002070472D
:1007300000207047B0B50E4D00AF2878A8B90D4C19
:10074000236893F8241000F03BFF2368DA78FF2A2F
:1007500003D1DA6A203282F3098862680AB9C4E9EF
:10076000002301F0D5F801232B700020B0BD00BF9D
:10077000FD2A0010442B0010014B1878704700BF71
:10078000FD2A001010B5EFF305841CB9EFF31484B3
:10079000E40702D4034B187810BDDFF80CC000DF6B
:1007A000FAE700BFFD2A00107907000090B589B074
:1007B00000AFEFF30583002B33D1FFF7E3FF28B938
:1007C000194C246814B1646804B1A047EFF3148491
:1007D00004F00304022C18D0032C1CD0012C1ED0D2
:1007E00007F1200484F30988104C2478E40710D51D
:1007F000022484F31488BFF34F8FBFF36F8FDFF8A9
:1008000030C000DF2437BD4690BD084C2478E40793
:10081000F5D40324EDE7054C2478E407EFD5FF2059
:10082000F0E78220EEE700BF342B0010D242010037
:100830003507000070B50B461646024610B9002475
:10084000204670BD00680028F9D0B2F90440E51CCC
:10085000ADB2062DF3D8D168C1B11269043444EAAF
:10086000012100F0EBFE0028E9D00A4B013853F8D3
:100870002040094AE36A5A63084B1B6843B19B68EE
:1008800033B13146E0789847A063D9E70A46E5E7F7
:10089000A663D5E78023001095060000342B0010D6
:1008A00008B500F085FE18B1024B013853F820005E
:1008B00008BD00BF8023001010B5FFF731FF0446CC
:1008C00070B1084B1B681BB1DB680BB1806B98479C
:1008D000E07800F001FFFF2814BF0020812010BD48
:1008E0008020FCE7342B0010F0B506460D46144678
:1008F000EFF305878FB9EFF31487FF0706D4084F8E
:100900003F781FB9BDE8F040FFF794BF3046294655
:100910002246DFF810C000DFF0BD0020FCE700BF7A
:10092000FD2A0010350800000022FFF7DDBF830715
:1009300005D138B1436901691B6818467047002327
:100940001946FAE70346FBE710B504460846DFF808
:100950000CC000DFC4E90001204610BD2F090000D3
:1009600010B5044630B1046824B1237823B9204679
:1009700000F0F0FB204610BD0024FBE770B510F03E
:10098000030405460E4612D188B10378032B0ED11D
:100990000846FFF7A5FE0146284600F0A9FC0128FD
:1009A00003D1002E14BFC1248124204670BD8024B1
:1009B000FBE710B510F003040AD148B10378032B0C
:1009C00006D100F025FCFF2808BF8124204610BD79
:1009D0008024FBE710B510F0030407D130B1037891
:1009E000032B03D100F0BEFB204610BD8024FBE7A3
:1009F00030B50446EFF305857DB9EFF31485ED07B7
:100A000006D4074D2D781DB9BDE83040FFF7A8BFCB
:100A10002046DFF810C000DF30BD0020FCE700BF3B
:100A2000FD2A00106109000010B5EFF305841CB920
:100A3000DFF808C000DF10BD8220FCE77D09000060
:100A400010B5EFF305841CB9DFF808C000DF10BD56
:100A50008220FCE7B309000010B5EFF305841CB950
:100A6000DFF808C000DF10BD8220FCE7D5090000D8
:100A700010B5044660B1016851B1406838B10378DF
:100A800033B90431890089B200F020FA606810BDE2
:100A90000020FCE738B50F4C23780BB900F0C6FEF8
:100AA000FF220D4B25781B689A7065B929460B48C3
:100AB000FFF7DEFF0A4B2A46186029460948FFF770
:100AC000B9FE094B1860012300202370074B1870F2
:100AD00038BD00BFFC2A0010442B0010D842010092
:100AE00040240010F4420100F82A0010FD2A0010F2
:100AF00010B5EFF305845CB9EFF31484E40703D475
:100B0000BDE81040FFF7C6BFDFF808C000DF10BD2A
:100B10008220FCE7950A00002DE9FF410C46804643
:100B200020B30378012B26D10846FFF7D9FD02A98F
:100B30000246404600F0D6F9012812D10020002CD0
:100B4000024603460CBF20464020029904460D464B
:100B500016461F462046294632463B4604B0BDE8AD
:100B6000F0810020024603461020EEE7802405466F
:100B700006460746EEE7002580242E462F46E9E785
:100B800070B50E461446054660B15AB90378012B7C
:100B900008D100F0F9F938B13146284600F0F8F9EB
:100BA000204670BD8024FBE78124F9E7F8B5114E9B
:100BB00034682CB1A368104F013BA360A26802B156
:100BC000F8BD2568214638683560FFF7D9FF10B1B8
:100BD0000420FFF783FC6379012B07D1E1682046ED
:100BE000FFF764FD002DEBD02C46E7E701232371CE
:100BF000F8E700BF002B0010402400107FB504462A
:100C00001646084601B122B180232360204604B075
:100C100070BD0B78012BF7D102A900F0C0F90428B0
:100C200008BF102301AD14BF0196019395E807009A
:100C300084E80700EAE70000F8B50446EFF305870B
:100C40001FB1FFF7DBFF2046F8BD08461146DFF86D
:100C50000CC000DFC4E90001A260F4E7190B00003A
:100C60007FB50A4C4FF0FF32216803A8FFF7E4FF7D
:100C7000039B102BF6D1049901A8FFF765FE019B99
:100C8000002BEFD002989847ECE700BF40240010FB
:100C900010B5038B42781943062A04460183438B1F
:100CA00015D133EA010219D121EA0301218320463B
:100CB00000F0D8F8012320466370628B0821FFF70B
:100CC000DCFB2146BDE81040054800F00BB8052AC2
:100CD00004D111EA030201D04283E5E710BD00BF51
:100CE000042B001030B502788C78013A4368D2B2F8
:100CF00013B19D78A54207D2022A4B60416006D805
:100D000003B19960886030BD18465B68F0E7002346
:100D10008B60F8E7436801785A680139022942601C
:100D20004FF0000106D80AB19060596000229A6025
:100D3000184670475960FBE7034B5A68426000222F
:100D400058608260704700BF042B0010114B10B533
:100D5000DA6892B19A8A8A42DC680DD3C460D8609E
:100D6000C468036104B1206192B2541A8482988AE3
:100D700001448A1A9A8207E03CB900248A1AC460A6
:100D8000D86003619A82848210BDA38A1A442346E4
:100D9000E1E700BF1C2B00102DE9F041174DEB6877
:100DA00053B10026AB8A164F013BDFF85880AB8267
:100DB000AA8A0AB9EC680CB9BDE8F081A36833B11E
:100DC0006168596011B161688B606260A6602146FC
:100DD0003846FFF787FFA38AAB826378042B01BFF5
:100DE000D8F80030E28A9B18A38201236370E3687D
:100DF000EB600BB11D61E6602661D9E71C2B00108A
:100E0000042B0010882B001083682BB142685A60B5
:100E100042685AB193607047054B5A68904202D1BC
:100E200042685A6070471346002AF6D1704700BFE7
:100E3000042B001010B5846801462CB94378012BAF
:100E40000DD1074C03E0A4682378002BFBD00846A3
:100E5000FFF7DAFF2046BDE81040FFF743BF10BDA3
:100E6000042B0010036910B55BB1C268DA604AB1A7
:100E7000998A848A2144998213610023C3600023E4
:100E8000036110BD9A82FAE730B40F4BDD78EFF3BF
:100E9000108272B69A78954207D901329A701A7800
:100EA000541CA54208BF00241C7062B6DC78944232
:100EB00005D930BC03EBC203C3E90101704702202E
:100EC00030BCFFF70BBB00BFBC2300100123038025
:100ED0000023103989088370C0E901338381C181FF
:100EE0007047000038B5838904461546002B35D07D
:100EF00043891A1D50F8222001330A60C2899BB22F
:100F00009A42438104BF002343814368F3B143788D
:100F1000022B1BD1FFF7FEFE05460021FFF7AAFAC0
:100F20002389E9691A1D44F822100133E2899BB232
:100F30009A42238108BF0023284608BF2381FFF778
:100F400091FF284600F0F8FA002038BDEFF3108337
:100F500072B6A389013BA38162B6F5E74AB1094B9A
:100F6000196843683BB1FFF7BDFE0821284600F031
:100F700005FB0120E9E74160C1E90130012343702D
:100F8000F3E700BF442B0010C2898089101A704714
:100F900008B5FFF779FFBDE8084000F01FBA838964
:100FA00010B50446F3B14389043350F823300B6085
:100FB0004378022B04D10021FFF766FF00F00EFA00
:100FC000EFF3108372B6A389013BA38162B66389F4
:100FD000E28901339BB29A42638101D1002363818C
:100FE000042000E0184610BD426870B504460E4665
:100FF000002A49D04578022D20D0032D0AD0012D9A
:1010000059D1FFF787FE044632461021FFF735FA23
:1010100065700EE0084600F07CF8054600284AD0CE
:101020002046FFF777FE29460446FFF723FA0123FF
:1010300063702046FFF716FF214620E0FFF76AFEA7
:1010400005460021FFF716FA2389EA69043344F8BC
:101050002320EFF3108372B6A3890133A38162B614
:101060002389E28901339BB29A42238104BF002382
:101070002381012328466B70FFF7F4FE2946BDE863
:1010800070401048FFF72EBE8189C389994213D260
:101090000389043340F82360EFF3108372B6838929
:1010A0000133838162B60389C18901339BB29942BE
:1010B000038100D1028170BD0320BDE87040FFF7BD
:1010C0000DBA00BF042B0010002ABBBF22F0004263
:1010D0000732033222F00702A8BF22F0030210B544
:1010E000B4BF10230C2392B1D4188C420FD8014402
:1010F00003445442C0E9011203602144981881421C
:1011000002D300510346F9E70020186010BD01200A
:10111000FCE7EFF3108272B6036802F001020BB134
:101120001968016002B962B61846704781420DD352
:1011300043688B420AD9EFF3108372B602680A60E3
:10114000016013F0010003D162B6704701207047BF
:10115000002070470323037000234380C0E901335C
:10116000C3607047F8B5438804469BB18068036A42
:101170009C4213D1E368036290F82430026AAAB952
:1011800082789A4206D083701F4B1B68834201D03D
:10119000FFF750FE01261D4F1FE01346002BEBD03A
:1011A000DA68A242F9D1E268DA60E5E7516819B17C
:1011B00089788B4238BF0B46D268E0E72046FFF7BC
:1011C000A9FD05460021FFF755F92846FFF74AFE1D
:1011D0006E7029463846FFF785FD6568002DEDD114
:1011E0000A4843686BB1084E9A7831688B789A4206
:1011F00007D9FFF777FD0122336828465A7000F0BF
:101200009BF900202070F8BD442B0010042B001027
:101210002DE9F84343880546002B63D0324F82689E
:1012200039688A425ED1013B9BB243801BB10024E6
:101230002046BDE8F8830B6A984229D1C3680B6247
:1012400091F824300C6A5CBB8B706A68DFF89C8074
:10125000002A3BD02846FFF75DFD06464FF0010906
:101260002146FFF707F93046FFF7FCFD336A39687E
:10127000EB60D8F80430A5F80290AE6035628A7849
:101280009B789A4214D3304600F056F9D0E71346C3
:10129000002BD5D0DA68AA42F9D1EA68DA60CFE744
:1012A00062681AB19278934238BF1346E468CAE77D
:1012B0004046FFF717FD31464046FFF713FD3B68F8
:1012C00083F8019086F801902046DDE7D8F80420E5
:1012D00092789A42ABD94046FFF704FD01223B6861
:1012E0005A70F1E7FF24A3E7442B0010042B0010F1
:1012F00070B50E46134D418804462B6839B91A6AF9
:101300008360C260186200200131618070BD806816
:101310009842F8D086B19B7882789A4202D2837044
:10132000FFF788FD6368296843B12046FFF7DAFCC0
:101330000921304600F022F90120E7E76160C1E9A8
:101340000134F5E7442B00100022034B1A60034AD6
:101350001268DA80704700BF382B0010EC420100A1
:1013600008B50E4B5A680E4B19880E4B1868904200
:1013700004D01A60DA88013A0A449A809A888A422C
:101380000AD1002205481A60FFF7C4FCBDE80840F6
:1013900001460248FFF7A6BC08BD00BF042B0010A1
:1013A000882B0010382B0010426810B57AB1FFF777
:1013B000B1FC0446FFF756FD012120466170FFF79E
:1013C00059F82146BDE810400348FFF78BBC42881E
:1013D0000132428010BD00BF042B0010054B1B786A
:1013E00023B94FF08052044B1A6070470122034B1F
:1013F0001A707047481E001004ED00E0491E0010EE
:1014000038B5184B184C186801234370FFF794FC4B
:101410006578A3783BB915486570FFF77BFCBDE89C
:10142000384000F06FB804EBC503586802787AB909
:101430001989FFF72DFCE3780135AB4208BF002581
:10144000EFF3108372B6A378013BA37062B6E0E7B6
:10145000012A03D19968FFF7C7FDECE7FFF7A4FF66
:10146000E9E700BF442B0010BC230010042B001040
:10147000084B4FF0FF301A68074B1A6000225A6081
:10148000072243F8042C054A136843F07F43136096
:10149000704700BF0843010014E000E020ED00E0C9
:1014A0007047000008B50B4B186801234370FFF725
:1014B00043FCFFF755FF084A136801331360FFF739
:1014C0006BFCFFF773FB0548FFF724FCBDE8084001
:1014D00000F018B8442B0010882B0010042B0010CB
:1014E000064B1A68136BD26A934203D81A68044BEE
:1014F0009A4202D00120FEF7F1BF7047442B001042
:10150000A52E5AE2054B586002234370044B1B681A
:101510001BB11B690BB1806B18477047442B00103F
:10152000342B001008B50348FFF7F4FBBDE8084072
:10153000FFF7E8BF042B001070B5044618B9BDE8EA
:101540007040FFF7EFBF0B4EA2783068012583781B
:101550009A4208D9FFF7F0FB336820465D70BDE87A
:101560007040FFF7CFBF65702146BDE8704002486C
:10157000FFF7B8BB442B0010042B001038B50D4604
:10158000014680B14FF6FF739842074C02D02068A5
:10159000FFF7DCFB236805485D70FFF7BBFBBDE888
:1015A0003840FFF7AFBF38BD442B0010042B0010AC
:1015B000024B186800B1C078704700BF442B001080
:1015C00010B5A8B9194B1B68997083F824101848F6
:1015D00043689B788B4201D8002010BD134C2168D2
:1015E000FFF780FB012223685A70FFF79BFFF3E7A8
:1015F000104B1B88834217D30F4B013853F8204000
:1016000094B10A4BA1701B6884F824109C42DED070
:101610002046FFF70FFC6378012BDDD10448FFF76C
:1016200079FBFFF789FFD7E7FF20D6E7442B0010AF
:10163000042B0010D4420100802300102DE9F04754
:101640000D4611F0FF0F80461F4816469A4608BF08
:101650000135FFF75EFD044618B900263046BDE8A7
:10166000F0871A49066389460126194B280A1B8808
:10167000A0629E42F1D851F8042B771E0AB10136C0
:10168000F7E74FF48073EDB2E670C4F81CA0238036
:10169000A57084F824502262C4E90122C4E903221F
:1016A000C4E9052284F8252018B90A48FFF731FD5E
:1016B000206320464146FEF78FFE204649F827402A
:1016C000FFF73AFFCAE700BF682700108023001029
:1016D000D4420100702100102DE9F84F4D4D2C68C7
:1016E00010B1E378834240D100236370FEF741FFDD
:1016F0000127E062FFF7F4FE2B68DFF82C811C6AFB
:10170000A4B92A684449D3784448013B41F82340AE
:10171000116BFFF70BFD296841480C63FFF706FDCD
:101720002C60FFF7FFFE2046BDE8F88F6368B3B179
:101730002046FFF7EFFA06460021FEF79BFE3046F3
:10174000FFF790FB777031464046FFF7CBFAE3682E
:10175000326A6780A660E26034621C46D0E7E268C5
:101760006380C4E902331446CAE72E4B1B888342C8
:101770004DD3294B471E53F827609946002E46D07B
:101780004FF0010A3046FFF73FFB3046FFF76AFB98
:10179000DFF894B0346AB4B9316B204849F8274077
:1017A000FFF7C4FC314634631D48FFF7BFFC1E48F9
:1017B000296843689A788B789A42B4D901234B7090
:1017C000FFF790FAADE76368DBB12046FFF7A2FAB6
:1017D00080460021FEF74EFE4046FFF743FB88F8A7
:1017E00001A041465846FFF77DFAE368D8F820206B
:1017F000A4F802A0C4F80880E260C8F820401C46A3
:10180000C9E7E2686380C4E902331446C3E7FF24F2
:1018100089E700BF442B00108023001070210010C6
:1018200068270010D4420100042B001038B5274B64
:10183000274A198800231846994243D80025254B8A
:101840003C2219882448FFF73FFC244B24481A887F
:10185000244B42F000421968FFF736FC224B082265
:101860001988224B224C1868FFF72EFC214B1C488C
:10187000C4E90035A562C4E90255C4E90455A5616F
:101880002562A584FFF745FC1B4920632046FEF72F
:10189000A3FD0422194B20461A705D60184B1A7084
:1018A000C3E903559D82174B1C6002236370FFF749
:1018B00029FE154A154B12781D80DA70BDE83840B4
:1018C000FFF742BD42F8040B0133B5E7D4420100F3
:1018D00080230010A042010068270010F0420100A0
:1018E000702100109C420100A2420100E80D00108E
:1018F0004C2B0010000100FFD9040000042B001045
:101900001C2B0010442B0010D1420100BC230010FE
:1019100008B51E4B1A6842F47F021A601B681B024E
:1019200003F07F43DB43B3FA83F3194ADBB2126857
:10193000C3F10803C2F30222934298BF531C6FF015
:101940008072144802FA03F3016803F07F4321F028
:101950007F4213430360FFF78BFD0F4B0028186095
:1019600012DBFF22012100F1604000F564400270AB
:101970001A6853099B0003F1604302F01F0203F54C
:10198000614301FA02F21A6008BD00BF20ED00E0D9
:101990000CED00E01CED00E0402B001010B5054BF5
:1019A00004460360406F10B103685B6898472046A7
:1019B00010BD00BFC44401000B68184710B50446B1
:1019C000FFF7ECFF20464FF4EE7104F0F5FF2046E0
:1019D00010BD70B58AB0BDF8384005461F2C1646BC
:1019E00014D822460DF109008DF8083006F006FBE8
:1019F000002302AA00933146631C284604F0BAF97A
:101A0000003018BF012040420AB070BD6FF00100E5
:101A1000FAE77FB514468DF80F3001230E46009388
:101A20000DF10F022146054604F0A4F968B90090B3
:101A3000BDF8203032462146284604F0BBF900307C
:101A400018BF0120404204B070BD4FF0FF30FAE7EC
:101A5000022330B585B000930446027912230D4667
:101A6000006803A9FFF7D5FF01226179BDF80C30AA
:101A70008A4092B26DB923EA0203ADF80C3002231A
:101A80002279009303A912232068FFF7A2FF05B073
:101A900030BD1343F1E7F0B54FF0FF30DF083D46AE
:101AA0000026DDF814C003F00703CCF800009542CF
:101AB00017D2B6B9BD420CBF1C463446485D04BFC0
:101AC0001841C0B210F0010605D004EBC504CCF8F3
:101AD00000400135EBE70134082C4FEA5000F1D10A
:101AE000F7E7F0BDD808904238BF012203F00703A2
:101AF0003FBF9A400B5C13430B5434BF00206FF080
:101B00003100704700201860087F28B1908A0A6A67
:101B100042438032120A1A600020704713B51C46F7
:101B2000D368236001ABFFF7EDFF18B92368019A72
:101B30001344236002B010BD4FF080438B4201D9A3
:101B40009B08FBE7002043B1C2188A424FEA5000CD
:101B50009CBFC018891A9B08F5E770472DE9F04132
:101B6000B1F85441D1F858610546DDE908076643EC
:101B70008036360A664353B1940204EB5304B4FB37
:101B8000F3F404EB4404644304F50044230CDDE95E
:101B900006124A4302F50042120C02FB02F1062231
:101BA00000F50044240C0334B4FBF2F4C4EBC40489
:101BB000B4F5803F3FBF0330B0FBF2F0C0EBC00094
:101BC00000F500403ABF020C02FB02F01A4801EB9C
:101BD00057020244B2FBF7F2FE2192037F32B2FBBE
:101BE000F1F24FF47A7702FB03F404F5FA74B4FBD4
:101BF000F7F406F120012401890904F5FA74284656
:101C0000FFF79AFFBC4221BF4FF4FA61B4FBF1F138
:101C1000B4FBF7F4891980462CBFB1FBF4F1002125
:101C20002846FFF789FF0A9B804594BFC3F80080D0
:101C300018600020BDE8F0810000F0FF2DE9F04FB2
:101C40000746904691B00A930B6A0D460E93D2E96F
:101C500003360D930FABFFF761FF0EAB42463846DC
:101C6000FFF750FF48BBD1F8DC3091F8E0A00893B3
:101C7000D1F8E430BAF1080F09930CBF0223032313
:101C80004FF47A7B0C930F9B0E9A0BFB03F480337B
:101C900004F500440B925FEA144E23F0FF0291F822
:101CA000E8C007920F92DFF8E89109D10A9BC3F8C8
:101CB00000901A9BC1F84091186011B0BDE8F08FF8
:101CC0006E4A099902FB0AF002FB0CF24FF4FA6C1F
:101CD00002F5FA72B2FBFCFA00F5FA70B0FBFCFCFC
:101CE000B2FBFBF2B0FBFBF00BFB01AA0899BAFBBD
:101CF000F2F20BFB01CCBCFBF0F00C990244514317
:101D0000C90201F5FA71B1FBFBF140F2776A0AFBF7
:101D100001FA0AF5FA7ABAFBFBFA0BFB06F6584A07
:101D20001B0A1640B6FBFEFE0AFB03F3554E80333A
:101D30001B0A08BF01230C21B64528BFB6464FF445
:101D400016765943384606FB0EF6FFF7F5FE98F86F
:101D500018104300B8F80800002940F08B80484A6A
:101D60004949144041F25C224143B1FBF2F10B9A24
:101D700004F5FA740BFB02F0B0F5481F28BF4FF4CE
:101D80004810A4EB4000B0FBFBF0B4FBFBFB0002EF
:101D9000B0FBFBFB4FEA0B2BCBF5803B01FB0BF4BD
:101DA00004F50044240C04F5803464086443A40B57
:101DB0004FF4487106F500426143120C524301F59D
:101DC0000041090C01FB012138460B93FFF7B4FEDB
:101DD0004FEA0048642008F13208B8FBF0F80B9B8A
:101DE00040F6B532B8FBF3F841F2883302FB08380D
:101DF000264B4FF4FA61984598BF42F210734FF4A6
:101E00007A7B98BFB8FBF3F8DDE90832134403F599
:101E1000FA73B3FBF1F1B3FBFBF301F5C811B1FBAE
:101E2000F3F1384688BF4FF47048FFF785FE010292
:101E300001F5FA71B1FBFBF14943384608FB081183
:101E4000FFF77AFE0BFB00F0484528BF48460A9B87
:101E5000079A18601A9BC5F84001CDE903A34FF417
:101E600048730296CDE9004329460D9B3846FFF79B
:101E700075FE22E74FF480349AE700BF002F3A0046
:101E80000000FFFF666666009A9906000F279F24F0
:101E9000AE878F0269B10023481E30F0FF0299B26D
:101EA00003F1010301D04008F7E700EB012080B205
:101EB00070470846704713B51C46BDF810300093B4
:101EC000806E13460A462146FFF783FD003018BF97
:101ED0000120404202B010BD10B4BDF8044091F89A
:101EE0005C11019410BCFFF7E6BF062307B5009311
:101EF0001346B022FFF7F0FF03B05DF804FB2DE9B5
:101F0000FF41002307460E4615461846EA5C002AA4
:101F100049D0002847D15C1CFF2A15F804C02CD1F9
:101F20009C1C295DBCF1030F03D8DFE80CF0060E02
:101F3000161E6FF003002346E8E71C1D2B44DB78D8
:101F400003EB0121A6F83411F5E71C1D2B44DB78C7
:101F500003EB0121A6F83611EDE71C1D2B44DB78BD
:101F600003EB0121A6F83811E5E71C1D2B44DB78B3
:101F700003EB0121A6F83C11DDE7042AD9D80DF1C5
:101F80000C0E991C73462C4414F8018F01308242C8
:101F90000EF8018BF8DC8C18009231466246384608
:101FA000FFF79AFFC7E704B0BDE8F0811FB58DF8D1
:101FB0000F30012391F85C1100930DF10F03FFF72F
:101FC0007AFF05B05DF804FB53088A22FFF7EEBFE5
:101FD0001FB55BBAADF80C30022391F85C11009389
:101FE00003ABFFF768FF05B05DF804FB70B51D4655
:101FF0008B1893F828300C46164623B904EB860458
:102000006563002010E0052A17D8DFE802F0030519
:102010000E1012124D63F1E74422C5F34F232146FF
:10202000FFF7D6FF0028E9D070BDCD63E6E70D6469
:10203000E4E7C5F34F236422F1E76FF00300F3E711
:1020400013B51C46BDF810300093806E13460A4647
:102050002146FFF7DEFC003018BF0120404202B0ED
:1020600010BD10B4BDF8044091F85C11019410BC8F
:10207000FFF7E6BF062307B500931346B022FFF72C
:10208000F0FF03B05DF804FB2DE9F04F04468A46EB
:1020900090469B464FF0000987B0139D119E039513
:1020A000149B99451FD003AB009332462B465946EB
:1020B0002046FFF7F0FC039F7B1C33D0129B1B4A8A
:1020C000FB189B0952F82330003318BF0123434506
:1020D00028D13B46324610992046FFF703FD7D1C70
:1020E00009F10109DCE70020159B1D60B8B9109AC1
:1020F00051462046FFF7F9FE88B904AA514620460A
:10210000FFF7B8FF109B04AA99198B4207D013F868
:10211000015B12F8014BA542F7D06FF0310007B018
:10212000BDE8F08F6FF03100DEE700BF90030010D4
:10213000F0B5174689B01E46FF22012305460C461E
:10214000FFF734FF0346C8B94F2221462846FFF760
:102150002DFF98B92C234E2221462846FFF726FF53
:10216000034658B9FF2221462846FFF71FFF28B92A
:10217000B423B62221462846FFF718FF0023C4F8EF
:102180002431A4F8283156B1134903F1B40292095D
:1021900051F8222022B92C2B02D00133F5E7334627
:1021A00007AACDE904720393B4220623CDE90132D4
:1021B00004F592730093324604F595732146284640
:1021C000FFF762FF30B9012384F8137184F81531E9
:1021D00084F8146109B0F0BD9003001013B5012418
:1021E00091F85C110094FFF72BFF003018BF01201D
:1021F000404202B010BDF7B50023832206460F46C9
:10220000FFF7D4FE044698B94FF4FA650DF10703C1
:10221000832239463046FFF7E1FF9DF80730044638
:10222000034313F0FF0F03D1013DEFD16FF006041C
:102230000123832239463046FFF7B8FE204340B2DF
:1022400003B0F0BD37B515460DF1070301220C466A
:10225000FFF7C4FF38B99DF8073084F83031DB0947
:102260002B7084F84C3003B030BD002313B51446F6
:102270008DF8073001220DF10703FFF7AFFF78B9A2
:102280009DF80730C3F300122270C3F3C002A2709E
:10229000C3F380026270C3F38012DB09E270237122
:1022A00002B010BD13B51C462AB1012A10D06FF040
:1022B000030002B010BD50220DF10703FFF78EFF9F
:1022C0000028F6D19DF8073001335B002370F0E75A
:1022D0000DF107037022F1E713B514460DF1070362
:1022E0001322FFF77BFF9DF8073013F0180F18BF7C
:1022F0006FF0050003F00702226002B010BD13B5B5
:1023000091F8DA301446042B09D101AAFFF7E4FF53
:10231000019B1A1F53425341237002B010BD01AB01
:102320001422FFF75BFF0028F7D19DF80430DB078C
:1023300001D50123F0E72070EFE7002373B50546D0
:102340000E464FF4FA648DF807300DF1070231465E
:102350002846FFF7D4FF58B99DF80730012B07D066
:10236000013C03D0022004F033F8EEE76FF00600E2
:1023700002B070BDF7B506460F46002501230B22BB
:1023800039463046FFF712FE002304460B22394639
:102390003046FFF70BFE0DF10703044313223946C5
:1023A0003046FFF71BFF9DF8073064B2204301352C
:1023B0005B0740B2EDB205D0032D08D00028DDD078
:1023C00003B0F0BD032D08BF6FF00B00F8E76FF00E
:1023D0000B00F5E770B542F00103002204460D46FC
:1023E000FFF7E4FD88B929462046FFF7A6FF60B94C
:1023F00029462046FFF7BEFF38B903460246294664
:102400002046BDE87040FFF7D1BD70BD10B5134642
:1024100014460922FFF7E2FE18B9237803F00103FE
:10242000237010BD0023F7B517468DF80730FF2243
:10243000012305460C46FFF7B9FD68B90DF1070306
:10244000042221462846FFF7C9FE28B90346FF2289
:1024500021462846FFF7AAFD9DF807603E6056BB5F
:102460000123802221462846FFF7A0FD0123FF22F9
:1024700021462846FFF79AFD334632462146284634
:10248000FFF794FD94F83A31912221462846FFF750
:102490008DFD0123324621462846FFF787FD33464E
:1024A000FF2221462846FFF781FD33468022214640
:1024B0002846FFF77BFD03B0F0BD1FB51C46002387
:1024C000ADF80C30022391F85C11009303ABFFF7D9
:1024D000B7FD30B99DF80C209DF80D3003EB0223B9
:1024E000238004B010BD13B514460DF10603282255
:1024F000FFF7E3FF60B9BDF80630C3F30B0213F436
:10250000006F4FF0FA0318BFA2F5805253432360C7
:1025100002B010BD37B515460DF1060320220C465A
:10252000FFF7CBFF28B9BDF8063023B9236A2B602B
:10253000207703B030BDDB002B60236201232377BB
:10254000F7E737B50C461D46052A2CD8DFE802F020
:10255000030717191B1B4B6B2B60002021E00DF1AB
:1025600006034422FFF7A9FFD8B9BDF8062053029D
:102570009AB12B60A363012384F8293011E0CB6B5F
:10258000EAE70B6CE8E70DF106036422FFF795FF1D
:1025900038B9BDF806305B02DEE7A36B2B6084F828
:1025A000290003B030BD6FF00300FAE72DE9FF41C9
:1025B0000024022A074688461D468DF80340ADF8E0
:1025C000044022D80DF102032246FFF76BFE30B91A
:1025D0000DF10303462241463846FFF7FFFD9DF803
:1025E0000220464B9DF8034053434FF47A7203F5A3
:1025F000FA73B3FBF2F304FB033303F5FA74B4FB91
:10260000F2F42C6004B0BDE8F081032A29D10DF169
:1026100002032246FFF746FE0028F2D102460DF1E2
:10262000020341463846FFF73DFE28B901AB51226F
:1026300041463846FFF741FFBDF804309DF80220BF
:10264000DCB21B0A9C400134A3B22C4C54434FF41F
:102650007A7204F5FA74B4FBF2F45C4304F5FA748C
:10266000CDE7042A47D102AAFFF7FFFD9DF80B3002
:10267000BBB10DF10203224641463846FFF712FE78
:1026800068B901AB512241463846FFF716FFBDF845
:102690000430DCB21B0A9C400134A4B210B1002308
:1026A00017E01C460DF10203012241463846FFF7B0
:1026B000F9FD0028F3D10DF1060371224146384699
:1026C000FFF7FBFEBDF80620D3B2120A9340013398
:1026D0009BB29DF80210094A1C1B4A434FF47A71C1
:1026E00002F5FA72B2FBF1F2A4B2544304F5FA74A3
:1026F000B4FBF1F485E7204683E700BF002F3A00E2
:10270000F0B5002314464FF4FA6287B0CDE90223F6
:1027100040F6363304AA236007460E46FFF7A5FDB0
:102720000546002838D19DF811209DF8103013433C
:102730009DF8122013431AD002AB022231463846CC
:10274000FFF734FF002842D19DF810302BB1029BD7
:1027500003F24E222368134423609DF81230F3B134
:10276000029B03F2B222236803EB420323609DF82D
:102770001330F3B99DF8143063B101AB0422314634
:102780003846FFF713FF019B03F226222368134408
:102790002360E0B923687361284607B0F0BD9DF857
:1027A0001130002BE3D0029B03F5257223681344FC
:1027B000DCE703AB032231463846FFF7F7FE039B05
:1027C00003F525722368134423600028D2D0054600
:1027D000E2E70000F7B51F460E220DF1060305469D
:1027E0000E46FFF76AFE0B4CBDF8063004EA434381
:1027F0003B6060B90DF106030C2231462846FFF715
:102800005CFEBDF8063004EA4344089B1C6003B03C
:10281000F0BD00BF0000FE1FF0B591F8DA3085B0C2
:10282000013B022B07460E46144639D803AB0093F2
:10283000012202ABFFF7CEFF029B0546B3F57F0FE7
:1028400003D8039BB3F57F0F07D935B944B1154AB7
:1028500031463846FFF753FB0546284605B0F0BD24
:102860000423FF2231463846FFF7A0FB2B460446DF
:10287000702231463846FFF799FB2B460443FF226E
:1028800031463846FFF792FB64B204432B46802260
:1028900031463846FFF78AFB64B2204345B2DCE795
:1028A0000025DAE7D701001073B50C460546012371
:1028B00080220E7CFFF77AFB0123FF222146284667
:1028C000FFF774FB002321461A462846FFF76EFBEC
:1028D00094F83A31912221462846FFF767FB0123FD
:1028E000002221462846FFF761FB0023FF222146F4
:1028F0002846FFF75BFB0023802221462846FFF78E
:1029000055FB012E2CD072B22AB1032E3AD06FF0B3
:10291000070002B070BD012321462846FFF746FBA1
:1029200001238DF807300028F3D1064606E0024661
:102930000DF1070321462846FFF750FC9DF80730AC
:102940000136DB0706D528B9B6F5FA6FEFD16FF07F
:102950000600DEE7B6F5FA6F08BF6FF00600D8E7AD
:1029600020B9324621462846FFF756FF02230022AF
:1029700021462846FFF71AFB0028CAD1042384F811
:102980003231C6E720B9012221462846FFF744FF2D
:102990000423ECE770B50D7C06460C462DB12146AC
:1029A0003046FFF7CAFC28B170BDFFF77DFF002855
:1029B000F5D0F9E7002DF7D1032384F83231F3E79E
:1029C00038B5002305460C461A46FFF7EFFA0123F7
:1029D000FF2221462846FFF7E9FA002321461A463E
:1029E0002846FFF7E3FA0023912221462846FFF705
:1029F000DDFA0123002221462846FFF7D7FAFF22FD
:102A0000002321462846FFF7D1FA024640B90323A6
:102A1000214684F832312846BDE83840FFF7FCBE35
:102A200038BD2DE9F04F8FB00793D30803F00F099D
:102A300005934FF2A103002423FA09F303F00103E5
:102A4000069391F8283083460D46BDF860A0DDF866
:102A50006880ADF822400D940493F3B10DAB009360
:102A6000199A09ABFFF7EAF80246002840F0BA804D
:102A70000D9B199958464B810AAB2946FFF761FD1A
:102A80000A9C24B1099B9C422CBF0024012428B13C
:102A900000270397BA463E4648E0049C95F82A3042
:102AA0000393002B68D00BAB022229465846FFF750
:102AB00048FDA0B90123FF2229465846FFF776FAC0
:102AC00068B90DF12203B62229465846FFF7F5FCF6
:102AD00028B90346FF2229465846FFF767FABDF892
:102AE000226073020B9EC5F848311EB1B34294BFF9
:102AF00000260126002878D195F82B70002F3FD0B2
:102B0000BAF1000F03D0079B1B02B3FBFAFA0CAB20
:102B1000032229465846FFF714FD0C9B73B3534517
:102B200094BF4FF0000A4FF0010A50B398F80030FC
:102B30000BB9199A5381049A95F82930002A08BFD5
:102B40000124B9F1040F16BFB3FA83F301235B0923
:102B500085F82F30039B0020002B08BF0126002F93
:102B600008BF4FF0010A85F82E4085F8306085F8DF
:102B700031A00FB0BDE8F08F039EBDE79A46D4E7C1
:102B8000BA46069B1BB1FF2388F80030CEE709F157
:102B9000FF33022B01D80523F6E7B9F1060F02D067
:102BA000B9F1090F01D10423EEE7059B03F00D03F2
:102BB000082B01D0012E01D10323E5E7B9F1040F61
:102BC00002D0BAF1010F01D10223DDE7012C03D1BC
:102BD00088F800405646A9E7002388F80030A2464E
:102BE0002646A3E727460394F9E70027BA469DE760
:102BF0000C232DE9F04391B00093144606AB142248
:102C000006460D46FFF72DFA8446002873D19DF83D
:102C100022309DF823109DF81E2001EB03219DF822
:102C20001F30A0752060606003EB02239DF8200038
:102C30009DF821209DF81B7002EB002292B25202F7
:102C400022619DF81A209BB207EB02275B02BFB2FC
:102C5000E360A782B5F8520189B2B0F57A7F9DF89A
:102C6000182095F831C10DD041434FF47A7095F892
:102C70001CE001F5FA71B1FBF0F1286ABEF1000F1A
:102C80003DD189B2BCF1000F43D088102081890169
:102C9000E1750DF11701CDE9014100972946304654
:102CA000FFF7BFFE844630BB9DF817E005F15006E4
:102CB00084F818E009AF0FCE0FC796E8070094F824
:102CC000178087E80700D4E90323D4E90101B4F8A9
:102CD0001490CDE90A01CDE90C23ADF838908DF8B8
:102CE0003B808DF83CE0503509AC0FCC0FC597E820
:102CF000070086E80700604611B0BDE8F08380B2A7
:102D000078430012834207D1BCF1000F0AD148F684
:102D1000E02121810021BBE789B25943181AB1FB98
:102D2000F0F1AEE742F2B821AFE7002370B50B74C3
:102D300005460C461646FFF72DFE58B93246214689
:102D40002846FFF755FF28B921462846BDE87040C0
:102D5000FFF710BB70BDF0B5C02389B01746012244
:102D600005460C4691F83061FFF720F918BB01AA1F
:102D700021462846FFF7D9FFE8B90123FF22214663
:102D80002846FFF713F9B0B93B46B622214628463C
:102D9000FFF793FB78B90346FF2221462846FFF749
:102DA00005F940B93346012221462846FFF7FEF8CF
:102DB00008B984F8306109B0F0BD0000032A2DE99C
:102DC000FF4107460E4698462ED10DF1050300221D
:102DD000FFF768FA9DF805103C4B4FF47A724B43AD
:102DE0004FF4FA6103F5FA73B3FBF1F1B3FBF2F3BD
:102DF00002FB0811B1FBF3F1044689B23846FFF734
:102E000049F80346ADF80600A6F8D80044B95122A7
:102E100031463846FFF7DCF8044608B9C6F8E480C6
:102E2000204604B0BDE8F081042A4CD102AAFFF785
:102E30001CFA9DF80B50D5B10DF105030022314667
:102E40003846FFF72FFA04460028E9D10DF10603B2
:102E5000512231463846FFF730FBBDF806300446B4
:102E6000DDB21B0A9D400135ADB20028D8D10DF16D
:102E70000503012231463846FFF714FA04460028BC
:102E8000CED19DF80510114B4FF47A724B434FF49D
:102E9000FA6103F5FA73B3FBF1F1B3FBF2F302FB52
:102EA0000811B1FBF3F138462944FEF7F3FF712214
:102EB000034631463846FFF78BF804460028AFD169
:102EC000C6F8DC80ACE76FF00304A9E7002F3A00F6
:102ED000022A73B506460D461C4628D80DF1070395
:102EE0000022FFF7DFF900BB9DF80730114A4FF4CD
:102EF0007A715A434FF4FA6302F5FA72B2FBF3F3B4
:102F000001FB0434B2FBF1F3B4FBF3F39AB2B2F574
:102F1000807F8EBFFF2303F1FF33DBB2A5F8D830EB
:102F2000462229463046FFF741F802B070BDFFF750
:102F300045FFFAE7002F3A002DE9FF41174600232D
:102F40004FF4FA62CDE9002344F61F639F428046A6
:102F50000E4605D86FF00305284604B0BDE8F081A1
:102F600002AAFFF782F905460028F5D19DF809204D
:102F70009DF80830A7F6363413439DF80A20134312
:102F80001AD06B46022231464046FFF70FFB00285D
:102F900038D19DF808302BB1009B03F24E239C42A0
:102FA000D8D9E41A9DF80A3023B3009B03F2B22368
:102FB0005B009C42CED9E41A9DF80B3063B101ABA3
:102FC000032231464046FFF7F1FA019B03F52573D2
:102FD000A342BFD2B0B9E41A9DF80C30002BBBD08D
:102FE000A4F22623042231464046FFF7E7FE77612C
:102FF0000546B1E79DF80930002BDDD0009B03F5B5
:103000002573D6E70546A7E7FFF796BF2DE9F341FD
:103010009846002314468DF8073001220DF107036E
:1030200007460E46FFF7DAF80546F0B9B8F1010F8A
:103030009DF8073029D1042C3DD8DFE804F0031AAD
:103040001D20230043F01004A3420ED0234601228A
:1030500031463846FEF7AAFF054630B986F83041BA
:10306000726931463846FFF7CFFF284602B0BDE807
:10307000F08143F02804E7E743F00404E4E743F079
:103080004004E1E743F08004DEE7042C13D8DFE8D6
:1030900004F00306090C0F0003F0EF04D4E703F07B
:1030A000D704D1E703F0FB04CEE703F0BF04CBE77E
:1030B00003F07F04C8E76FF00305D6E7002307B5E8
:1030C000C022ADF80630D0F8D8110DF10603FFF795
:1030D000F4F94EF6AA63BDF806209A4218BF4FF0E5
:1030E000FF3003B05DF804FB1FB51C4600230393BB
:1030F000042391F85C11009303ABFEF7A1FF70B9B4
:103100009DF80D309DF80C201B0403EB02639DF825
:103110000E2003EB02239DF80F201344236004B01C
:1031200010BD2DE9F04F4FF0000A91F8F07091B00A
:10313000072F06460C469146CDE907AA00F0E0822B
:1031400001238022FEF732FF01238046FF22214621
:103150003046FEF72BFF534648EA00085246214608
:103160003046FEF723FF4FFA88F848EA00080623A6
:10317000FF2221463046FEF719FF4FFA88F848EA49
:1031800000080DF11503832221463046FFF726F88B
:103190009DF815304FFA88F848EA000843F0040318
:1031A000832221463046FEF701FF4FFA88F848EAAD
:1031B000000045B20723FF2221463046FEF7F6FE07
:1031C00001238122214605433046FEF7EFFE6DB212
:1031D0000543022003F0FCF80123802221463046FB
:1031E000FEF7E4FE6DB2054319F001036DB20093E2
:1031F00000F05782FB0700F159826B23942221468D
:103200003046FEF7D3FE214680463046FEF7F3FFF8
:1032100048EA0000054306AB902221463046FFF7FE
:1032200063FF6DB2054306989422C0F30623019311
:1032300021462423C0F3C03A3046FEF7B7FE6DB2F4
:10324000054321463046FEF7D6FF6DB2054306AB77
:10325000902221463046FFF747FF069B6DB21BBA0E
:10326000942205430993214625233046FEF79EFE0E
:103270006DB2054321463046FEF7BDFF6DB20543F2
:1032800006AB902221463046FFF72EFF069B6DB21B
:103290001A0E05431B0C6DB28DF828208DF82930CD
:1032A00019F00203039300F0ED8017F0020840F0DC
:1032B000E9800223942221463046FEF777FE21461C
:1032C00083463046FEF797FF4BEA000005430DF1B9
:1032D0001603902221463046FEF780FF6DB27B2315
:1032E0009422054321463046FEF760FE6DB2054349
:1032F00021463046FEF77FFF6DB205430DF11703FF
:10330000902221463046FEF769FF6DB27723942262
:10331000054321463046FEF749FE6DB2054321467E
:103320003046FEF768FF6DB2054306AB902221469A
:103330003046FFF7D9FE069B6DB25A0E8DF82C2051
:10334000C3F386428DF82D20C3F3C6228DF82E20BC
:10335000C3F30612DB0003F0780305438DF82F203A
:103360008DF815309422782321463046FEF71EFE54
:103370006DB2054321463046FEF73DFF6DB2054371
:1033800006AB902221463046FFF7AEFE069B9DF825
:1033900015206DB202EB53728DF83020C3F38652C4
:1033A0008DF83120C3F3C6328DF83220C3F30622E4
:1033B0008DF83320C3F346029B0103F0400305431D
:1033C0008DF834208DF8153094227923214630462B
:1033D000FEF7ECFD6DB2054321463046FEF70BFFCC
:1033E0006DB2054306AB902221463046FFF77CFEC6
:1033F000069B9DF815206DB202EB93628DF8352087
:10340000C3F3C6428DF83620C3F306328DF8372059
:10341000C3F346129B0003F07C0305438DF838206C
:103420008DF8153094227A2321463046FEF7BEFDF2
:103430006DB2054321463046FEF7DDFE6DB2054311
:1034400006AB902221463046FFF74EFE069B9DF8C4
:1034500015206DB202EB93728DF83920C3F3C6527A
:103460008DF83A20C3F3064205438DF83B20C3F3A1
:103470004622C3F386036DB28DF83C208DF83D30B3
:103480008DF83E8019F00403029300F01281780752
:1034900000F10F817B23942221463046FEF786FD02
:1034A000214680463046FEF7A6FE48EA0000054366
:1034B00007AB902221463046FFF716FE6DB27C2303
:1034C0009422054321463046FEF770FD6DB2054358
:1034D00021463046FEF78FFE6DB2054308AB9022C1
:1034E00021463046FFF700FE6DB273239422054358
:1034F00021463046FEF75AFD6DB20543214630465F
:10350000FEF779FE6DB2054306AB902221463046A8
:10351000FFF7EAFD069B6DB2942205434FEA0328AC
:10352000214674233046FEF741FD6DB20543214626
:103530003046FEF760FE6DB2054306AB9022214691
:103540003046FFF7D1FD9DF81B301FFA88F86DB2A9
:1035500094220543214643EA080830467523FEF7C6
:1035600025FD6DB2054321463046FEF744FE6DB29F
:10357000054306AB902221463046FFF7B5FD069B7A
:103580006DB21B02942205431FFA83FB214676236A
:103590003046FEF70BFD6DB2054321463046FEF77F
:1035A0002AFE6DB2054306AB902221463046FFF756
:1035B0009BFD6DB29DF81B3005436DB243EA0B0BCA
:1035C0000023812221463046FEF7F0FC0623054306
:1035D000FF2221463046FEF7E9FC6DB205430DF1AE
:1035E0001503832221463046FEF7F8FD9DF815307D
:1035F0006DB2054303F0FB03832221463046FEF7FC
:10360000D5FC6DB205430123FF2221463046FEF76B
:10361000CDFC6DB205430123002221463046FEF762
:10362000C5FC6DB205430023FF2221463046FEF75C
:10363000BDFC6DB205430023802221463046FEF7D3
:10364000B5FC6DB205436DB23DBB009BABBB039BAC
:10365000002B45D1029BE3B17B071AD4079BC4F82A
:103660001831089BC4F81C314FEA4823C4F82031B4
:10367000BBF1000F0BD0ABF5C8534FF47A7B0BFBBB
:1036800003FB4FEA1B1BCBF1000B0FFA8BFBC4F8BB
:103690000CB047EA090784F8F070284611B0BDE87D
:1036A000F08FDDF800A0CDF804A0F9E5CDF804A076
:1036B000F6E54FF00008C34682E7F907C7D4019B3F
:1036C00084F814A184F8133109AA04F5957304F55C
:1036D000987112F8010B03F8010B9942F9D1B6E782
:1036E000BA07B7D49DF816300BA984F8F1309DF8CD
:1036F000173004F1F30084F8F23005F0F7FAA9E787
:103700005546CAE7F8B5174602220E461C46FFF793
:1037100008FD054640B996F8F13004F140002BB998
:1037200005493D7005F0E2FA2846F8BD96F8F230FA
:1037300006F1F3013B70F5E79842010073B51346BB
:1037400014460DF1070205460E46FFF7DBFF10BBDE
:103750009DF807300BBB1749204605F0C7FA1649FC
:1037600004F1200005F0C2FA04F16003C0223146E2
:103770002846FEF733FD70B90DF10603C22231462B
:103780002846FEF72BFD012384F861309DF80630B2
:103790001B0984F8623002B070BD222B03D8202BA5
:1037A00003D00649D8E7262B01D80549D4E70549B7
:1037B000D2E700BF78440100B14401008444010015
:1037C000904401009C44010073B515460DF10203BD
:1037D000F82206460C46FEF770FE78B901AB0422CB
:1037E00021463046FFF780FC40B9BDF802201AB1EF
:1037F000019BB3FBF2F32B602B68A36102B070BD99
:103800002DE9F0470B7C144602F8083B06460D46AE
:10381000FFF7DAFF60BB207304F11002294630463F
:10382000FEF778FE20BB04F1140229463046FEF76D
:103830005AFEE8B9074604F1240805F1280A04F104
:1038400018094346BAB229463046FEF77AFE78B9DF
:103850001AF8013B0137062F09F8013B08F104086B
:10386000EFD104F13C0229463046FEF7EBFC08B1EB
:10387000BDE8F087221D29463046BDE8F047FEF737
:103880003FBF2DE9FF4101261C46002300960D464F
:103890008DF80F3091F85C110DF10F03074690463B
:1038A000FEF7CEFB80B99DF80F3000961C409DF8C6
:1038B0002830424623438DF80F3095F85C110DF106
:1038C0000F033846FEF7F7FA40B204B0BDE8F081C6
:1038D0002DE9F04F4FF0000B85B092469946FF223C
:1038E000012305460E469DF844809DF848708DF8EA
:1038F0000FB0FEF75BFB5B4604465A46314628464E
:10390000FEF754FB5B460443FF2231462846FEF790
:103910004DFB64B2044364B2BAF1000F35D0B8F184
:10392000000F07D00F9BCB2231462846FEF756FCEE
:10393000044364B247B10DF10F03EE22314628462D
:10394000FEF74CFC044364B231460123FF222846B3
:10395000FEF72CFB31460443012300222846FEF7E4
:1039600025FB64B204430023FF2231462846FEF7BC
:103970001DFB64B29DF80F30109A204323F0100312
:1039800040B2137005B0BDE8F08FB8F1000F07D05A
:103990004B46CB2231462846FEF708FB044364B26F
:1039A000002FD1D09DF83830EE220093314680238D
:1039B0002846FFF766FFC5E72DE9F0479A46002342
:1039C00088B09DF8408006460D4691468DF81F3020
:1039D000B8F1000F26D091F83071012329461A461C
:1039E0003046FEF7E3FA044678BB402229463046CB
:1039F000FEF7F0FC044640BBBAF1010F14D10DF103
:103A00001F03CDE903A0CDE9019300900346524680
:103A100029463046FFF75CFF40B10446204608B017
:103A2000BDE8F0874746D8E789F80000B8F1000FF5
:103A3000F4D03B46012229463046FEF7B7FA044649
:103A40000028EBD185F83071E8E70023204689F89B
:103A50000030E2E72DE9F04788B09DF84080064647
:103A60000D4691469A46B8F1000F27D091F8307173
:103A70000223012229463046FEF798FA044680BB0D
:103A8000024629463046FEF7A5FC044648BBBAF17B
:103A9000010F15D10DF11F03CDE90003CDE9030A94
:103AA0000346CDF80890524629463046FFF710FFEE
:103AB00040B10446204608B0BDE8F0874746D7E746
:103AC00089F80000B8F1000FF4D03B4601222946E6
:103AD0003046FEF76BFA04460028EBD185F83071CA
:103AE000E8E70023204689F80030E2E72DE9F043BB
:103AF0001F46002387B017F0010906460D46904681
:103B00008DF80B3004D132B9A7F10C03062B5FD925
:103B10006FF003006AE0012A20D07C10013CE4B27F
:103B2000B8F1000F00F0C780B8F1010FF0D103AB7E
:103B3000042229463046FEF739FD60B9234670223B
:103B400029463046FEF732FA28B9039B042229465B
:103B50003046FFF733F985F8E070D0E0A7F10803AD
:103B6000062BD5D8082F50D110234822FEF71EFA75
:103B70003B46472229463046FEF718FA0223044600
:103B8000322229463046FEF711FA0C230443302234
:103B900029463046FEF70AFA64B204434346FF2240
:103BA00029463046FEF702FA302364B2044364B279
:103BB000302229463046FEF7F9F94B460443FF22EE
:103BC00029463046FEF7F2F964B2204340B20BE0DA
:103BD0000C2F0ED118235722FEF7E8F9082356229E
:103BE00029463046FEF7E2F9002896D007B0BDE836
:103BF000F0830E2F01D13023EDE7102F01D14023A8
:103C0000E9E7122F89D15023E5E70A2F24D1282391
:103C10004822FEF7CBF90823472229463046FEF713
:103C2000C5F903230446322229463046FEF7BEF981
:103C30000923044364B2302229463046FEF7B6F920
:103C400043460443FF2229463046FEF7AFF964B2EB
:103C5000044364B22023ABE70C2F14D1382348224D
:103C6000FEF7A4F90823472229463046FEF79EF9BD
:103C700003230446322229463046FEF797F90443CF
:103C800064B20823D7E70E2F7FF447AF48231A46C4
:103C9000FEF78CF90823472229463046FEF786F9BD
:103CA00003230446322229463046FEF77FF90443B7
:103CB00064B20723BFE704AB032229463046FEF770
:103CC00075FCD0B905AB022229463046FEF76EFCE2
:103CD00098B92346502229463046FEF767F960B965
:103CE000049B032229463046FFF768F828B9059B54
:103CF000022229463046FFF7EBF885F8E8700028E5
:103D00007FF474AF6A6929463046FFF715F9002839
:103D10007FF46CAF01230DF10B020093294603469B
:103D20003046FFF797FE61E72DE9F34198460023FF
:103D30009DF8207091F8305100933B4606460C46A2
:103D4000FFF73AFE80B900903B4642462146304696
:103D5000FFF780FE40B92B46012221463046FEF790
:103D600025F908B984F8305102B0BDE8F0810000AF
:103D70002DE9F04F93B0CDE90A230023FF22CDE9CE
:103D80000E338DF834308DF83530C1F82431A1F878
:103D90002831012306460D46B1F83C91FEF706F99D
:103DA0000446002840F0028103464F22294630464F
:103DB000FEF7FCF80446002840F0F8802C234E2241
:103DC00029463046FEF7F2F80446002840F0EE801F
:103DD0000346FF2229463046FEF7E8F8044600284D
:103DE00040F0E480B423B62229463046FEF7DEF8E0
:103DF0000446002840F0DA800346802229463046F7
:103E0000FEF7D4F80446002840F0D08000900DF171
:103E100035030DAA29463046FFF786FF04460028E1
:103E200040F0C48005F5957307930323B421CDE9D1
:103E30000303062305F5927A0EAFCDE901310E900A
:103E400002460597CDF800A0079B29463046FEF7AD
:103E50001BF90446002840F0A9800DF136022946DE
:103E60003046DDF83880FEF776FF0446002840F043
:103E70009D80BDF836304B4540F2BD80624AC5F8A2
:103E80002401A5F8280108F1B4039B0952F8233056
:103E900093B10623B42205970327CDE90132CDE97A
:103EA0000387CDF800A0079B012229463046FEF784
:103EB000EBF838B1044679E0B8F12B0FE9D808F1F6
:103EC0000108E0E70DF1360229463046DDF838807A
:103ED000FEF741FF0028EDD1BDF836304B4540F2EA
:103EE0008E804FF0010BCDF818B0BDF836304B4541
:103EF0006DD20327A3EB0903DAF80000BAF8042017
:103F0000002BB8BF5B429DF818B01090ADF844206C
:103F100009930FAB00930622434607993046FDF7FD
:103F2000BAFDDDF83C80B8F1FF3F61D0364A08F1B8
:103F3000B4039B0952F82330069A003318BF0123BB
:103F4000934244D17B1C0893062243465146304697
:103F5000FDF7C8FD0028ADD1524629463046FDF791
:103F6000C4FF0028A6D10DF1360229463046FEF7DF
:103F7000F2FE00289ED1BDF83620A2EB0903002BEB
:103F8000B8BF5B424A4515D9099A93421ED910AA77
:103F900029463046FDF7A9FF0346BDF84420109896
:103FA000A5F82821C5F824018BB11C46204613B082
:103FB000BDE8F08FD5F82401B5F8282108F10108F3
:103FC0001090ADF84420089F0993A2E7089F0A9B30
:103FD0001F600B9B83F800B0012385F815310A9B05
:103FE0001B6885F813310B9B1B7885F81431DDE7CE
:103FF0006FF03104DAE70027BB46069775E7012327
:1040000007468346069370E79003001013B501241A
:104010000094FFF789FE02B010BD0000F7B5152A25
:1040200006460D461F469DF8204076D10123FF220B
:10403000FDF7BCFF002304461A4629463046FDF72B
:10404000B5FF00230443FF2229463046FDF7AEFFAB
:1040500064B204430123802229463046FDF7A6FFBF
:1040600064B204430223852229463046FDF79EFFB1
:1040700064B204430423FF2229463046FDF796FF2D
:1040800064B204430023CD2229463046FDF78EFF5B
:1040900064B204431123CC2229463046FDF786FF43
:1040A00064B204430723FF2229463046FDF77EFF12
:1040B00064B204430023BE2229463046FDF776FF52
:1040C00064B204430623FF2229463046FDF76EFF03
:1040D00064B204430923CC2229463046FDF766FF2B
:1040E00064B204430023FF2229463046FDF75EFFF9
:1040F00064B204430123FF2229463046FDF756FFF0
:10410000002364B204431A4629463046FDF74EFFA9
:1041100064B2204340B203B0F0BD042B1BD80F4B58
:104120000A22DB5DFDF742FF0028F4D1002C18BF06
:104130001024EF230094842229463046FFF7A1FB88
:104140000028E8D12946304685F8DA7003B0BDE88A
:10415000F040FEF70FB96FF00A00DCE70C430100F6
:10416000F0B597B00D4607464022002106A804F09E
:1041700021F80023012229463846ADF80E308DF88B
:104180000B308DF80C300493FEF7CBFF95F814310B
:10419000012B06D895F8132140F0BC80202A40F26C
:1041A000BB8003AB04AA29463846FFF7E1FD04466D
:1041B000002840F0AC8095F85031002B40F0B180E1
:1041C000D5F84C2129463846FDF799FE04460028CB
:1041D00040F09D8000942246042329463846FFF78C
:1041E0001DFF0446002840F092800123FF2229464B
:1041F0003846FDF7DBFE0DF10E0306468422294604
:104200003846FEF75AF923460643FF222946384628
:10421000FDF7CCFE76B2304344B2002C77D1BDF826
:104220000E3006AA1B01C5F8D43029463846FFF7E0
:10423000E7FA044600286AD10DF10B0229463846F8
:10424000FEF7E4F80446002861D19DF80B3005F133
:10425000100406AE85F831310FCE0FC40FCE0FC457
:104260000FCE0FC496E80F0084E80F000DF10B038A
:10427000012229463846FDF7B1FF0446002846D101
:104280009DF80B30024685F8303129460346384602
:10429000FEF7BCFE0446D0BB034602222946384640
:1042A000FEF7B4FE044690BB0323024685F8323184
:1042B00029460DF10D033846FDF7F4FF044630BBE7
:1042C0009DF80D30012285F8E83029460DF10D03E7
:1042D0003846FDF7E7FF0446C8B99DF80D300322C4
:1042E00085F8E030294605AB3846FEF75FF904460D
:1042F00068B9059B0422C5F8E430294605AB384669
:10430000FEF754F9044610B9059BC5F8DC30204689
:1043100017B0F0BD0C2A42E729463846FDF708FFE2
:1043200045E7014A4EE700BFE4000010052AF7B553
:104330000C4616461D4638D863B101EB82030121B5
:1043400000225B6B771E042F07D8DFE807F00E18FA
:104350001B1E260019460122F4E784F82810344475
:10436000FDB984F82850002007E0C3F34F2344220E
:104370002146FDF72DFE0028F1D003B0F0BD84F8F2
:104380002A10ECE784F82B10E9E7FE235200009294
:1043900060222146FFF775FAEDE712010092EF2344
:1043A000F6E7012384F82830DDE76FF00300E4E747
:1043B0002DE9F041002392B088220D460646FDF714
:1043C000F5FD4FF47A72A5F852214FF4C87200231C
:1043D000A5F85421544A85F8F030C5F85821534ABD
:1043E0002B62C5F8D420294602AA3046FFF708FA06
:1043F000044688B9ADF8080005F1100C02AF0FCFE4
:10440000ACE80F000FCFACE80F000FCFACE80F0007
:1044100097E80F008CE80F00454B0127C5F83431B1
:104420004FF4FA73A5F838314FF420638022A5F8D1
:104430003C3129463B4685F850713046FDF7B6FDC4
:104440003B468046FF2229463046FDF7AFFD00235C
:1044500048EA00001A46044329463046FDF7A6FD07
:1044600064B204430DF10703912229463046FDF75B
:10447000B5FE9DF8073064B2044385F83A31002256
:104480003B4629463046FDF791FD64B204430023C4
:10449000FF2229463046FDF789FD64B2044300231C
:1044A000802229463046FDF781FD64B22043002476
:1044B00040B2B0BBA2B20123294630460134FFF717
:1044C00035FF062CF5D160BB0446688503460422FF
:1044D00029463046FFF72AFF18BB03460522294626
:1044E0003046FFF723FFE0B94FF4901301226B63CE
:1044F00029464FF480433046FDF778FD88B94FF4E4
:104500000C13C5E90F30FF23012285F8303129460D
:104510003046FDF74BFD012385F8323108B985F8A7
:10452000154112B0BDE8F081856B0100A47009004F
:104530006400840308B5D0F8D811FFF739FF08BD2F
:10454000002373B505460E464FF4FA64019301AAA1
:1045500031462846FDF766FF019B3BB130B902208A
:1045600001F036FF013CF2D16FF0060002B070BDE1
:10457000F7B5C56E04460F46002D36D02B680133C3
:1045800004D124224449454801F0F2FD2B696A68B0
:104590001A600A2001F01CFFE56E002D2FD02B6859
:1045A000013304D124223C493C4801F0E1FDEB6891
:1045B0006A681A600A2001F00BFF00238DF80430AE
:1045C000236801A95B68204698470546002858D112
:1045D000264656F8783B20461B68314698470546E4
:1045E000B8B12F4803F05CFE4BE0006F0028D0D03C
:1045F0004379102BCDD02946FDF72AFAC9E7206F61
:104600000028D7D04379102BD4D00121FDF720FA10
:10461000D0E73146221D2046FFF790F8214803F0ED
:1046200087FED4F8D8112046FFF79AFDB8B91E4886
:1046300003F07EFE0DF103030DF10202D4F8D81150
:104640002046FFF7E3FC50B9184803F071FE0DF166
:10465000010301AAD4F8D8112046FFF789FB0546CB
:1046600008B11348BEE7522F0ED03A46D4F8D811FD
:104670002046FDF7A9FC054660B9D4F8D83183F887
:104680005C71284603B0F0BD0A4803F009FE6FF0E4
:104690000305F6E70848A5E73C4201007B4201001C
:1046A00011430100324301004E43010075430100F4
:1046B0009F430100BC430100D3430100F0B503292F
:1046C00089B004460E46174640F08C80436F0125A2
:1046D0002BB9474803F02CFE284609B0F0BDD0F8AE
:1046E000D811FEF76DF900952A460423D4F8D811A5
:1046F0002046FFF793FC0646054670B9606F40B14F
:104700003C4B002F049718BF1F4604A9079701F0E0
:10471000E3FB606F08B101F092FBD4F8D81120469A
:10472000FDF728FE002ED7D10122D4F8D8311A7413
:10473000D4F8D8112046FEF7B7F846E00022D4F8A6
:10474000D8311A74D4F8D831324683F82860D4F8B6
:10475000D8113346FFF7EAFD05460028BCD141F6E3
:1047600099133246D4F8D8112046FDF73FFC054690
:104770000028B1D14FF47012D4F8D83120465A63D2
:10478000D4F8D81148F2E802FEF7D6FB0546002817
:10479000A2D102461223D4F8D8112046FFF7A6F979
:1047A0000546002898D10E233246D4F8D811204669
:1047B000FFF79CF9054600288ED104AB0DF10F02DE
:1047C000D4F8D8112046FFF721FC054684E70A48B3
:1047D00003F0AEFD0122D4F8D83108481A7403F072
:1047E000A7FDA5E70129A9D00229F0D0002573E78C
:1047F0002C440100B919000039440100574401005C
:104800000129F8B504460E46174615D1D0F8D8113F
:10481000FEF78BFA05462846F8BD032E01D0002589
:10482000F9E7D4F8D811FEF7E3F9D4F8D811054622
:104830002046FDF79FFDEEE70229EED1D4F8D8110E
:10484000FDF77BFD05460028E5D13A46D4F8D8119E
:104850002046FEF7CDF9D4F8D81105462046FDF7DD
:1048600089FD304601F0B4FDD5E700000239012989
:1048700010B5044617D80D4803F05AFDD4F8D811E6
:104880002046FEF79DF868B9094803F051FDD4F8B9
:10489000D8112046FFF754FE20B9D4F8D81120468D
:1048A000FDF768FD10BD0020FCE700BFF3430100E9
:1048B0001344010070B5002288B00E460121054660
:1048C000FFF7FCFE044628B901AA01212846FFF79C
:1048D00097FF04469DF81C304BB9BDF80C3033608F
:1048E00001212846FFF7C2FF204608B070BD002313
:1048F0006FF00504F3E7022330B585B0009304465A
:10490000027912230D46006803A9FDF782F80122FF
:104910006179BDF80C308A4092B26DB923EA020386
:10492000ADF80C3002232279009303A912232068EA
:10493000FDF74FF805B030BD1343F1E730B504463D
:1049400008461146102985B01A462060237161710E
:104950002CD00125142303A90095FDF75AF815233F
:1049600022790DF10D0100952068FDF752F8637969
:10497000BDF80C2005FA03F31343ADF80C3022798F
:10498000142303A900952068FDF723F8152300954B
:1049900022790DF10D012068FDF71BF86379102BCA
:1049A00004D09DF820102046FFF7A5FF204605B053
:1049B00030BD022313B514460093027A0B460068FB
:1049C0002146FDF706F802B010BD1FB5802304464E
:1049D0008DF80F30012321602272009308460323D3
:1049E0000DF10F01FCF7F5FF22460023204622F8C7
:1049F000043F1421FFF7DDFF22464FF6FF732046E8
:104A000022F8063F1221FFF7D4FF204604B010BD64
:104A100070B51D46114B026703609DF810300022EF
:104A200080F8D431012380F8D5314FF4C873A0F851
:104A3000D63100F17803C0F8D8316B1C044681668A
:104A4000C26609D0482000F03BFB0646294601F02B
:104A500017FA6667204670BD4267FBE7C444010051
:104A600010B5C46E7CB12368013304D124220B49F4
:104A70000B4801F07DFB236962681A600A20BDE8DB
:104A8000104001F0A5BC006F0028F7D04379102B2F
:104A9000F4D02146FFF72FFFF0E700BF3C420100B2
:104AA0007B42010030B5044602250846C4E90012E5
:104AB00085B000950A7A00230DF10E010068FCF71D
:104AC000A8FF60680DF10E01027A009500230068CE
:104AD000FCF79FFF4FF6FF730DF10E0220681421C3
:104AE000ADF80E30FFF765FF4BF6FF730DF10E02C8
:104AF00060681421ADF80E30FFF75BFF43F6FF73DB
:104B00000DF10E0220681221ADF80E30FFF751FFB3
:104B100060680DF10E021221FFF74BFF204605B031
:104B200030BD2DE9F74304460C20216098460D4620
:104B3000914600F0C5FA064629468622FFF745FF52
:104B400026610C2000F0BCFA064629468422FFF7B5
:104B50003CFF6661082000F0B3FAD4E90412054670
:104B6000FFF7A0FF6562082000F0AAFA01260546BB
:104B70002168009684230F22FFF7E0FEA5614FF421
:104B8000EE7000F09DFA522507464B46A269216857
:104B90000095FFF73DFF6760082000F091FA074697
:104BA0002168009686230E22FFF7C8FEE7614FF4C6
:104BB000EE7000F085FA07464346E26921680095E9
:104BC000FFF726FFA760082000F07AFA0746216861
:104BD000009686230F22FFF7B1FE27624FF4EE7096
:104BE00000F06EFA00950A9B226A21680646FFF7DC
:104BF0000FFF2046E66003B0BDE8F0832DE9F743E0
:104C00000B4C9946236806460F4690465BB9282010
:104C100000F056FA0546CDF8009043463A46314634
:104C2000FFF77FFF2560206803B0BDE8F08300BF79
:104C30004C1E001070B504464068FFF711FFA068D5
:104C4000FFF70EFFE068FFF70BFF54216068FFF7E6
:104C50008FFC00283CD0606810B10368DB6898477F
:104C60000025A069082101F0A7FE6560A5611F4825
:104C700003F016FB5621A068FFF77AFC68B3A06822
:104C800010B10368DB689847E069082101F094FEE1
:104C900000231748A360E36103F002FB5821E0689A
:104CA000FFF766FC0646E8B1E06810B10368DB6810
:104CB00098470821206A01F07FFE00230D48E36039
:104CC0002362B5FA85F603F0EBFA7609304670BD3B
:104CD000094803F0E5FA0125CCE7084803F0E0FABB
:104CE0000135DBE7064803F0DBFAEFE7D8440100C3
:104CF0000C4501003C450100F4440100264501003B
:104D00005745010010B50C4CA268A4681346B4F1D5
:104D1000805F0CD2131F094A53F8044F42F8044F26
:104D2000074CA242F8D1044A4FF0805393601030F0
:104D300043F8201010BD00BF00ED00E0FCFFFF0FA6
:104D4000C000001038B50368044601330D4604D195
:104D500005480649242201F00BFA63680DB1E268A8
:104D600000E02269136038BD7B4201006E450100FE
:104D700000B599B001F020FA68461B4901F0A7FA86
:104D800006A81A4901F0A3FA0CA8194901F09FFAE4
:104D900012A8184901F09BFA68460121FFF7D2FFDB
:104DA00006A80021FFF7CEFF0CA80021FFF7CAFFDD
:104DB00012A80121FFF7C6FF962001F009FB684603
:104DC0000021FFF7BFFF06A80121FFF7BBFF0CA8DA
:104DD0000121FFF7B7FF12A80021FFF7B3FF9620CC
:104DE00001F0F6FAD8E700BF32C0092034C009202C
:104DF00035C0092037C0092030B505460C46A1B0A2
:104E000001F0DAF929466846224608F01FFE051E21
:104E100003DC01F0FBF921B030BD094B1B6823B95D
:104E200008480949094A00F009FE00241DF8041049
:104E30000448013400F066FDAC42F7D1E9E700BF59
:104E4000601F00108C2B001002C0092003C0092035
:104E50000FB407B504A951F8040B0191FFF7CCFF7B
:104E600003B05DF804EB04B0704770B50446036806
:104E70005B6A9847236820461B69002101229847F6
:104E8000431C0646236804D120469B6A9847304657
:104E900070BD1B6920460021022298472368054601
:104EA000314600221B6920469847236820469B6AAA
:104EB0009847284670BD000008B5084B1B685BB9D1
:104EC00007480849084A00F0B9FD05484FF4165153
:104ED000BDE8084000F094BB08BD00BF601F001093
:104EE0008C2B001002C0092003C0092002284FF0BB
:104EF000000309DD0749C21E51F8220041F82230A3
:104F000020B103685B681847184670474FF0FF30C0
:104F1000704700BF5C1E0010022870B50C46154695
:104F20000FDC0E4B1B680BB9FFF7C6FF6619B442C6
:104F300005D00B4814F8011B00F0E4FCF7E7284605
:104F400070BD084B033853F8200020B1BDE8704015
:104F500003681B6818474FF0FF3070BD601F0010DA
:104F60008C2B00105C1E0010022810B50C460ADCC9
:104F70000B4B1B680BB9FFF79FFF0A4800F07EFC44
:104F80002070012010BD084B033853F8200020B1D9
:104F9000BDE8104003689B6818474FF0FF3010BD14
:104FA000601F00108C2B00105C1E0010022807DD13
:104FB000064B033853F8200020B10368DB6818471C
:104FC000012070474FF0FF30704700BF5C1E00109B
:104FD000022807DD064B033853F8200020B1036890
:104FE0001B691847002070474FF0FF30704700BF23
:104FF0005C1E0010022808B504D84FF400534B6023
:10500000002008BD01F0F0FC092303604FF0FF30E1
:1050100008BD08B5012001F0EDFC08B5FBF78AFAE0
:1050200008BD7047704708B5FFF7FCFFFFF7F9FFB1
:10503000BDE80840FBF766B90C4A10B51368184480
:10504000EFF30881884205D3094B0C221A604FF018
:10505000FF3010BD0749096821B1074C246821447D
:105060008842F1D21060184610BD00BFA0030010A6
:10507000942B0010581E00105C1F0010094C08B53E
:1050800023680546986801F0CDFD2368D86801F0D3
:10509000C9FD01F01FF908B101F06EF90DB1FFF77C
:1050A00067FEFEE7A8030010002103F0AFBB08B5C0
:1050B000FBF74EFA08BD08B5FBF752FA08BD000031
:1050C00010B502F0A1FC044610B9024801F062F8E4
:1050D000204610BDF445010008B102F09DBC7047A8
:1050E000034653F8042B10B5044602B90360226846
:1050F0009A4204D003480449542201F039F8206848
:1051000010BD00BF30460100444601000B4B10B5F6
:10511000036004460A48FFF7E3FF0023094A52F8F8
:105120002310A14204BF002142F823100133402B79
:10513000F4D10348FFF7D4FF204610BDA04601007C
:10514000501E00105C1E00102DE9F34188463649C0
:10515000054603F0EDFC044610B9FFF7ADFE5EE036
:105160002846324903F0E4FC18B9FFF7A5FE0124F4
:1051700055E028462E4903F0DBFC18B9FFF79CFEEA
:1051800002244CE02B48FFF7ABFF00242A4E56F8D0
:105190002430374633B10134402CF7D12548FFF78E
:1051A0009FFF3AE04FF0FF33224846F82430FFF7E4
:1051B00097FF2B783A2B06D1284620496A4603F000
:1051C00017FC009824E06846294600F059FD68461F
:1051D00000F098FD10B946F824001EE0684600F083
:1051E0007FFD18B1684600F084FD11E0684600F0CC
:1051F00070FD054610B946F824000EE003686846C5
:105200009E6800F05BFD28F4803201462846B047D6
:1052100047F8240008B1033401E04FF0FF34204682
:1052200002B0BDE8F08100BFDB4501008D46010002
:10523000E2450100501E00105C1E0010894601006E
:105240000649074A074B9A42BEBF51F8040B42F881
:10525000040BF8E7044880470448004784530100E2
:10526000C8000010680D0010855200005D010000AC
:10527000FEE7FEE7FEE7FEE7FEE7FEE7FEE7FEE706
:10528000FEE7FEE7264B2022C3F8A021D3F8A02199
:10529000900603D5D3F8A0215106FBD50222C3F80E
:1052A00004210022C3F8A8210120C3F8AC210B225D
:1052B000C3F80C01AA21C3F884205522C3F88C102E
:1052C000C3F88C20C3F88000C3F88C10C3F88C207E
:1052D000134BD3F888205201FAD50322C3F880205B
:1052E000AA22C3F88C205522C3F88C20D3F888104A
:1052F0000B4A11F0407FF9D00523C2F80831094B61
:10530000C2F8C4300023C2F8C831136823F47043D4
:1053100023F03A0343F4405343F03A0313607047D9
:1053200000C00F40DE872804431C10B5044604D19A
:1053300006480749152200F01BFF2046002100F017
:1053400043F804F01F040120A04010BD804201007A
:10535000CC46010038B505464B1C0C4629600FD0E1
:105360000846FFF7E1FF24F01F0404F11803EB6087
:1053700004F11C032B6104F1140368606B61AC60E1
:1053800038BD006800F048B838B5036804460133FA
:105390000D4604D10A480B492C2200F0E9FE15B154
:1053A000012D06D038BDA2686168136823EA0103A5
:1053B00003E0A268636811680B43136038BD00BF47
:1053C0007B420100CC46010038B5431C04460D4623
:1053D00004D10F480F49152200F0CAFE04F16040C5
:1053E000A0F51C2003099B0003F1804303F5303333
:1053F00000F00F02520018680321914020EA0101D9
:1054000019601868954045EA0001196038BD00BF71
:10541000804201002B47010038B5431C05460C466D
:1054200004D118481849202200F0A2FE05F160407E
:10543000A0F51C2043099B0003F1804303F53033A2
:105440009D6EC4F3800200F01F0102FA01F125EA0B
:1054500001059D669D6E2943996692B903099B00DB
:1054600003F1804303F5303300F00F025200186C53
:105470000321914020EA01011964196C94400C4306
:105480001C6438BD804201002B470100012810B583
:1054900002D0022811D010BD0346382251431148D2
:1054A00042184058E8B113B992F83620CAB1BDE8A5
:1054B00010400D4A1946126810470A48382303FB6A
:1054C00001035868013005D018699C68046093F89E
:1054D00036300BB10023E0E7506820F00100506047
:1054E000DBE710BD681F0010641F0010034A002195
:1054F0009068C0F34200FFF7C9BF00BF00C0004082
:10550000034A01219068C0F34200FFF7BFBF00BF0C
:1055100000000140034A02219068C0F34200FFF7F7
:10552000B5BF00BF00800940034A03219068C0F363
:105530004200FFF7ABBF00BF00C0094070B5284B69
:1055400004689C4211D006DCA3F580439C4212D132
:10555000244D052311E0244B9C4209D003F58043E0
:105560009C4208D1214D082307E0214D062304E089
:10557000204D072301E000252B4672B16268012609
:1055800006FA01F10A4362605CB220462946FFF741
:10559000B9FB194BA6401E6070BD01290AD04568B1
:1055A000164A382606FB052292F8365030325279D8
:1055B000D54213D1012202FA01F6B1FA81F16568F0
:1055C000490925EA06056560006802FA01F14068AC
:1055D000014202BF9A40084BC3F8802070BD00BF53
:1055E00000000140ED5400000080094029550000F2
:1055F000015500001555000000E100E0681F001093
:105600002DE9F04F0268734B8DB09A4206460F4663
:1056100004DD714871499B2200F0AAFD3368704A8D
:10562000934223D00FDCA2F58042934239D16D4BD7
:10563000D3F8A82122F0C002C3F8A821D3F8A821EA
:1056400042F040021DE0684A93421DD002F58042BC
:10565000934226D1634BD3F8AC2122F44022C3F805
:10566000AC21D3F8AC2142F4802218E05D4BD3F892
:10567000A82122F44072C3F8A821D3F8A82142F44B
:105680008072C3F8A8210CE0564BD3F8AC2122F469
:105690004032C3F8AC21D3F8AC2142F48032C3F8D5
:1056A000AC21524B3D01D3F800B0BBFBF5F305FB39
:1056B00013B51FFA83F9002D53D04FEA4B0305931E
:1056C0004FF0010A4FEA8B03069303935346059A62
:1056D0000197CDF808B00497002501995FFA8AFC7C
:1056E0004FF00008002A5FFA88F00790ABBF0398DC
:1056F000B2FBF1F4B0FBF1F42409A8BF6409013452
:10570000C4F34F04002C49D0B8F1000F02D0012C93
:1057100098BF022408EB0A0060430893029BC00074
:10572000B3FBF0F00130C7EB5000CDF82CC00A916C
:10573000099201F049F9049B099A98420A99089B39
:10574000DDF82CC005DAB8422ED06346A146079D8D
:10575000049008F101085FFA88F060453944C1D32C
:1057600026E00123316845EA03150A7BEDB242F0D9
:1057700080020A733268C9F30721117132685FFA37
:1057800089F982F80090326882F828503268137BD9
:1057900003F07F0313730DB0BDE8F08FB8F1000F75
:1057A00014BF02240124B5E76346079DA146D9E74B
:1057B000BAF10F0FD6D00299069859440291059973
:1057C0000AF1010A0A4403990144039101993944F9
:1057D000019182E700C009401848010031480100EA
:1057E0000000014000C00F4000800940A4030010E9
:1057F000F8B55E1E012E07460C46154604D914481E
:105800001449FB2200F0B4FC053C032C04D91248D7
:105810001049FC2200F0ACFC042D04D90F480D49BE
:10582000FE2200F0A5FC013DEDB2032D87BF002252
:1058300011460B4B012198BF5A5744EA860343EAAD
:10584000C104386844EA0214E4B20473F8BD00BF2E
:105850009248010031480100B7480100DA480100D0
:105860006E490100034B1960416838234B430249DC
:10587000CA507047641F0010681F0010024610B520
:1058800001680B7DDB07FCD50B785268D8B2084B5A
:10589000382404FB02335A6801321FBF5A699B68DF
:1058A00013604B681CBF43F001034B6010BD00BF89
:1058B000681F00104268124B382101FB0233D9697E
:1058C00003F11802013109D01B6B19689368194262
:1058D00014D10368187DC0F380107047026830331C
:1058E000127D12F0200F03D000221A7101207047A0
:1058F00018790F288CBF00200120704700207047C6
:10590000681F001038B504460D462046FFF7D2FF49
:105910000028FAD02368EDB21D706268044B38216C
:1059200001FB023393F83420013283F8342038BD70
:10593000681F00102DE9F84F9A463C4C0368054655
:10594000A34218BF00248846914647681CB1237CB7
:1059500003F03F032374364E382202FB07634FF0F7
:10596000FF31D96159606B68002102FB036328464F
:1059700083F835100A46FFF7E1FDB8F1000F52D069
:105980002C49484600F0D6FC2B498346504600F08F
:10599000D1FCA8F10203012B17D8BAF1FF3F3FD089
:1059A000224B984209D144B1237C504643F08003F6
:1059B0002374214900F090FC32E0382000FB07609E
:1059C00051461C3000F069FC2AE0B8F1010F2AD1E1
:1059D000B9F1FF3F27D02B6807221A72134B9B4562
:1059E0000AD14CB1237C484643F04003237411494B
:1059F000BDE8F84F00F070BC382404FB076049464E
:105A00000430002200F04CFC6B68012204FB0366AA
:105A100086F835202846BDE8F84F0021FFF78EBDF7
:105A2000B8F1030FD3E7BDE8F88F00BF00000140D5
:105A3000681F001088470100E04901002DE9F84384
:105A400005460F4608464D49164600F07FFC4C4976
:105A50000446304600F07AFC0146204600F058FC2F
:105A6000411C044604D1474847495C2200F080FBB2
:105A7000464B2C609C4217D009D8A3F580439C422A
:105A80001FD1434AD2F8C43043F0080317E0414B1A
:105A90009C420FD003F580439C4212D13C4AD2F87D
:105AA000C43043F000730AE0394AD2F8C43043F0FE
:105AB000100304E0364AD2F8C43043F08073C2F8D1
:105AC000C4304FF0010984F808902B684FF00008AB
:105AD000C3F8048028464FF41651FFF791FD424663
